:100000000C945D000C9485000C9485000C94850084
:100010000C9485000C9485000C9485000C9485004C
:100020000C9485000C9485000C9485000C9485003C
:100030000C9485000C9485000C9485000C9485002C
:100040000C943F020C9485000C94AF020C9489022E
:100050000C9485000C9485000C9485000C9485000C
:100060000C9485000C9485000000000024002700FB
:100070002A0000000000250028002B0004040404CE
:100080000404040402020202020203030303030342
:10009000010204081020408001020408102001021F
:1000A00004081020000000080002010000030407FB
:1000B00000000000000000009D0311241FBECFEFD0
:1000C000D8E0DEBFCDBF11E0A0E0B1E0E4EAF7E0A8
:1000D00002C005900D92AC31B107D9F721E0ACE137
:1000E000B1E001C01D92A23CB207E1F710E0CDE5FE
:1000F000D0E004C02197FE010E94CA03CC35D1078D
:10010000C9F70E94E1020C94D0030C940000E3EBC9
:10011000F0E02491EFE9F0E09491EBE8F0E0E49175
:10012000EE23C9F0222339F0233001F1A8F4213065
:1001300019F1223029F1F0E0EE0FFF1FEE58FF4FCA
:10014000A591B4912FB7F894EC91811126C09095A8
:100150009E239C932FBF08952730A9F02830C9F023
:10016000243049F7209180002F7D03C0209180002A
:100170002F7720938000DFCF24B52F7724BDDBCFEE
:1001800024B52F7DFBCF2091B0002F772093B000B6
:10019000D2CF2091B0002F7DF9CF9E2BDACF3FB781
:1001A000F8948091210190912201A0912301B091B6
:1001B000240126B5A89B05C02F3F19F00196A11D6B
:1001C000B11D3FBFBA2FA92F982F8827BC01CD01A1
:1001D000620F711D811D911D42E0660F771F881F00
:1001E000991F4A95D1F708958F929F92AF92BF922F
:1001F000CF92DF92EF92FF920E94CF004B015C0101
:1002000084EFC82EDD24D394E12CF12C0E94CF0082
:10021000681979098A099B09683E7340810591052F
:10022000A8F321E0C21AD108E108F10888EE880E8F
:1002300083E0981EA11CB11CC114D104E104F10497
:1002400029F7FF90EF90DF90CF90BF90AF909F90F5
:100250008F900895AF92BF92CF92DF92EF92FF926C
:100260000F931F93CF93DF936C017B018B01040FDE
:10027000151FEB015E01AE18BF08C017D10759F07A
:100280006991D601ED91FC910190F081E02DC601BC
:100290000995892B79F7C501DF91CF911F910F91B6
:1002A000FF90EF90DF90CF90BF90AF900895FC014A
:1002B000538D448D252F30E0842F90E0821B930BCB
:1002C000541710F0CF96089501970895FC01918D71
:1002D000828D981761F0A28DAE0FBF2FB11D5D9674
:1002E0008C91928D9F5F9F73928F90E008958FEF16
:1002F0009FEF0895FC01918D828D981731F0828DCA
:10030000E80FF11D858D90E008958FEF9FEF089520
:10031000FC01918D228D892F90E0805C9F4F821B84
:1003200091098F739927089585E291E00E948801D1
:1003300021E0892B09F420E0822F089580E090E0ED
:10034000892B29F00E94940181110C9400000895DA
:10035000FC01A48DA80FB92FB11DA35ABF4F2C913A
:10036000848D90E001968F739927848FA689B78931
:100370002C93A089B1898C91837080648C93938D28
:10038000848D981306C00288F389E02D80818F7DCB
:1003900080830895EF92FF920F931F93CF93DF9383
:1003A000EC0181E0888F9B8D8C8D98131AC0E889B1
:1003B000F989808185FF15C09FB7F894EE89FF8980
:1003C0006083E889F98980818370806480839FBF1E
:1003D00081E090E0DF91CF911F910F91FF90EF901E
:1003E0000895F62E0B8D10E00F5F1F4F0F7311272E
:1003F000E02E8C8D8E110CC00FB607FCFACFE88969
:10040000F989808185FFF5CFCE010E94A801F1CF47
:10041000EB8DEC0FFD2FF11DE35AFF4FF0829FB7DC
:10042000F8940B8FEA89FB8980818062CFCFCF93CC
:10043000DF93EC01888D8823B9F0AA89BB89E8890C
:10044000F9898C9185FD03C0808186FD0DC00FB6B2
:1004500007FCF7CF8C9185FFF2CF808185FFEDCF30
:10046000CE010E94A801E9CFDF91CF91089542E02B
:1004700050E062E171E085E291E00C942A011F9264
:100480000F920FB60F9211242F933F938F939F9348
:10049000AF93BF9380911D0190911E01A0911F0108
:1004A000B091200130911C0123E0230F2D3758F526
:1004B0000196A11DB11D20931C0180931D019093F5
:1004C0001E01A0931F01B093200180912101909102
:1004D0002201A0912301B09124010196A11DB11D1B
:1004E0008093210190932201A0932301B0932401D2
:1004F000BF91AF919F918F913F912F910F900FBE20
:100500000F901F90189526E8230F0296A11DB11D8C
:10051000D2CF1F920F920FB60F9211242F933F93B9
:100520004F935F936F937F938F939F93AF93BF93FB
:10053000EF93FF9385E291E00E94A801FF91EF9174
:10054000BF91AF919F918F917F916F915F914F91EB
:100550003F912F910F900FBE0F901F9018951F92F3
:100560000F920FB60F9211242F938F939F93EF93B7
:10057000FF93E0913501F09136018081E0913B01DC
:10058000F0913C0182FD1BC0908180913E018F5F04
:100590008F7320913F01821741F0E0913E01F0E01E
:1005A000EB5DFE4F958F80933E01FF91EF919F9100
:1005B0008F912F910F900FBE0F901F9018958081F3
:1005C000F4CF789484B5826084BD84B5816084BDA5
:1005D00085B5826085BD85B5816085BD80916E00E1
:1005E000816080936E001092810080918100826012
:1005F000809381008091810081608093810080914F
:1006000080008160809380008091B100846080933D
:10061000B1008091B00081608093B00080917A0039
:10062000846080937A0080917A00826080937A005F
:1006300080917A00816080937A0080917A0080684E
:1006400080937A001092C100EFE9F0E02491EBE88A
:10065000F0E08491882399F090E0880F991FFC01C5
:10066000E859FF4FA591B491FC01EE58FF4F8591D9
:1006700094918FB7F894EC91E22BEC938FBFE091BB
:100680003501F091360182E08083E0913101F091F3
:1006900032011082E0913301F09134018FEC8083BC
:1006A00010923D01E0913901F0913A0186E080839A
:1006B000E0913701F0913801808180618083E09181
:1006C0003701F0913801808188608083E0913701A3
:1006D000F0913801808180688083E0913701F0914A
:1006E000380180818F7D8083C0E0D0E081E00E946E
:1006F000870042E050E065E171E085E291E00E9410
:100700002A010E9437020E94F40080E00E948700C4
:1007100043E050E068E171E085E291E00E942A0147
:100720000E9437020E94F400209701F30E94940176
:100730008823E1F20E940000D9CFE5E2F1E01382C4
:10074000128288EE93E0A0E0B0E084839583A683D4
:10075000B78384E091E09183808385EC90E0958776
:10076000848784EC90E09787868780EC90E0918B7B
:10077000808B81EC90E0938B828B82EC90E0958B68
:10078000848B86EC90E0978B868B118E128E138E65
:10079000148E0895EE0FFF1F0590F491E02D09943B
:0407A000F894FFCFFB
:1007A40000000000CA012A015701170288016601EE
:0C07B4007A010D0A004F4E004F4646002F
:00000001FF
