:100000000C9462000C948A000C948A000C948A0070
:100010000C948A000C948A000C948A000C948A0038
:100020000C948A000C948A000C948A000C948A0028
:100030000C948A000C948A000C948A000C948A0018
:100040000C941C090C948A000C948C090C9466097D
:100050000C948A000C948A000C948A000C948A00F8
:100060000C94BE090C948A000000000024002700B4
:100070002A0000000000250028002B0000000008D6
:10008000000201000003040700000000000000005F
:1000900000000000230026002900040404040404D6
:1000A0000404020202020202030303030303010227
:1000B00004081020408001020408102001020408F6
:1000C0001020DD0A11241FBECFEFD8E0DEBFCDBF68
:1000D00011E0A0E0B1E0E8E6FEE102C005900D927B
:1000E000AA3EB107D9F723E0AAEEB1E001C01D9204
:1000F000AF37B207E1F710E0C2E6D0E004C02197C5
:10010000FE010E942C0FC136D107C9F70E94450B92
:100110000C94320F0C940000CF92DF92EF92FF927A
:10012000CF93DF93B0916703A0E08111AB2F809153
:10013000680390E0880F991FAC0140575F4FC09053
:100140006D03D0906E03E0906F03F090700330E089
:1001500020E0FA01C591D491E881B90190E080E0F6
:10016000EB23EA130AC02F5F3F4F6C157D058E0508
:100170009F0578F36FEF7FEFCB01DF91CF91FF9079
:10018000EF90DF90CF90089590E0FC01E458FF4F8E
:100190002491FC01E255FF4F3491FC01E656FF4FDC
:1001A000E491EE23C9F0222339F0233001F1A8F4C1
:1001B000213019F1223029F1F0E0EE0FFF1FEE5847
:1001C000FF4FA591B4918FB7F894EC91611126C0BF
:1001D00030953E233C938FBF08952730A9F02830F7
:1001E000C9F0243049F7809180008F7D03C0809151
:1001F00080008F7780938000DFCF84B58F7784BDB8
:10020000DBCF84B58F7DFBCF8091B0008F7780935B
:10021000B000D2CF8091B0008F7DF9CF3E2BDACFE6
:10022000CF93DF9390E0FC01E255FF4F2491865677
:100230009F4FFC0184918823D1F090E0880F991F93
:10024000FC01E859FF4FA591B491FC01EE58FF4F16
:10025000C591D491623071F49FB7F8943C91822F8C
:10026000809583238C93E8812E2B28839FBFDF9179
:10027000CF9108958FB7F894EC912E2B2C938FBFCC
:10028000F6CF3FB7F8948091B3029091B402A09159
:10029000B502B091B60226B5A89B05C02F3F19F054
:1002A0000196A11DB11D3FBFBA2FA92F982F8827F6
:1002B000BC01CD01620F711D811D911D42E0660FD1
:1002C000771F881F991F4A95D1F708958F929F92A3
:1002D000AF92BF92CF92DF92EF92FF924B015C01FF
:1002E0000E9441016B017C010E9441016C197D0952
:1002F0008E099F09683E734081059105A8F321E0AE
:10030000821A9108A108B10888EEC80E83E0D81EB1
:10031000E11CF11C81149104A104B10429F7FF90A0
:10032000EF90DF90CF90BF90AF909F908F90089507
:100330002FB7F8946091AF027091B0028091B10232
:100340009091B2022FBF0895CF92DF92EF92FF9269
:100350000F931F93CF93DF93CDB7DEB7C054D14037
:100360000FB6F894DEBF0FBECDBF0E94980100917A
:10037000690310916A0320916B0330916C036B0148
:100380007C01C01AD10AE20AF30A97018601003DF6
:1003900017402105310590F480917103C05CDE4F58
:1003A0000FB6F894DEBF0FBECDBFDF91CF911F9186
:1003B0000F91FF90EF90DF90CF90089560936903C5
:1003C00070936A0380936B0390936C0310926403A1
:1003D0001092630310926203109261031092600303
:1003E00062E0809165030E94100161E070E080E0AE
:1003F00090E00E94660161E0809165030E94100117
:1004000060E0809165030E94C4008091660385517D
:10041000823020F58BE291E10197F1F762E0809163
:1004200065030E9410018091720390E08230910573
:1004300038F0880F991F880F991F05970197F1F7DA
:10044000F89480E00E948C006F3F7F4F8F4F9F4F4A
:1004500061F410927103789480E0A0CF64E170E0C1
:1004600080E090E00E946601D9CF81E00E948C007C
:100470006F3F7F4F8F4F9F4F61F38E010F5F1F4F75
:100480006E012FEBC21A2EEFD20A780180E00E9493
:100490008C00F701608371838283938381E00E94E3
:1004A0008C00F7016483758386839783F8E0EF0EF1
:1004B000F11CEC14FD0451F7789430E020E0F801D1
:1004C000C080D180E280F38044815581668177814C
:1004D000FFEFCF16DF06EF06FF0631F04F3F8FEF3D
:1004E00058076807780719F410927103B5CFF9011E
:1004F00083E0F595E7958A95E1F7E05AFC4F808116
:10050000880FC416D506E606F70610F180832F5F24
:100510003F4F085F1F4F2832310589F64091640331
:100520002091600380916103280F3327331F80914E
:100530006203280F311D80916303820F932F911D59
:1005400099274817190681F681E08093710326CF19
:100550008160DCCF08950895AF92BF92CF92DF9271
:10056000EF92FF920F931F93CF93DF936C017B0168
:100570008B01040F151FEB015E01AE18BF08C017F9
:10058000D10759F06991D601ED91FC910190F0816C
:10059000E02DC6010995892B79F7C501DF91CF912F
:1005A0001F910F91FF90EF90DF90CF90BF90AF9091
:1005B0000895FC01538D448D252F30E0842F90E069
:1005C000821B930B541710F0CF960895019708954E
:1005D000FC01918D828D981761F0A28DAE0FBF2F17
:1005E000B11D5D968C91928D9F5F9F73928F90E06D
:1005F00008958FEF9FEF0895FC01918D828D9817DC
:1006000031F0828DE80FF11D858D90E008958FEF18
:100610009FEF0895FC01918D228D892F90E0805CE1
:100620009F4F821B91098F739927089587EB92E062
:100630000E940A0321E0892B09F420E0822F08950B
:1006400080E090E0892B29F00E94160381110C9420
:1006500000000895FC01A48DA80FB92FB11DA35A65
:10066000BF4F2C91848D90E001968F739927848FD2
:10067000A689B7892C93A089B1898C9183708064F5
:100680008C93938D848D981306C00288F389E02D96
:1006900080818F7D80830895EF92FF920F931F9347
:1006A000CF93DF93EC0181E0888F9B8D8C8D981325
:1006B0001AC0E889F989808185FF15C09FB7F89431
:1006C000EE89FF896083E889F9898081837080647D
:1006D00080839FBF81E090E0DF91CF911F910F91C8
:1006E000FF90EF900895F62E0B8D10E00F5F1F4FD7
:1006F0000F731127E02E8C8D8E110CC00FB607FCE6
:10070000FACFE889F989808185FFF5CFCE010E9473
:100710002A03F1CFEB8DEC0FFD2FF11DE35AFF4FB4
:10072000F0829FB7F8940B8FEA89FB898081806201
:10073000CFCFCF93DF93EC01888D8823B9F0AA89BE
:10074000BB89E889F9898C9185FD03C0808186FD8C
:100750000DC00FB607FCF7CF8C9185FFF2CF8081DB
:1007600085FFEDCFCE010E942A03E9CFDF91CF9123
:100770000895089520912B02260F3327331F21322D
:100780003105ECF420917402FC0190E080E024300B
:1007900069F082E00895A0912B022191AC01455FA0
:1007A0005D4FA40FB52FB11D2C930196861798F3BA
:1007B00080912B02680F60932B0280E0089581E006
:1007C00008951092740281E08093730210924E0299
:1007D00061E082E10E94C40061E083E10E94C40004
:1007E000E9EBF0E080818E7F808380818D7F808344
:1007F00088E48093B80085E48093BC000895CF938B
:10080000DF9391E090930A028823B9F0C091B80079
:10081000D091BA008091BC008A7B8093BC0060E0DC
:1008200082E10E94C40060E083E10E94C4000E9453
:10083000E103D093BA00C093B800DF91CF9108953F
:100840000895E091A3028091A202E81730F4F0E04D
:10085000E651FE4F808190E008958FEF9FEF08955D
:100860009091A3028091A2022FEF3FEF981748F4D6
:10087000E92FF0E0E651FE4F208130E09F5F90933A
:10088000A302C90108958091A2029091A302891B3D
:10089000990B0895CF92DF92EF92FF920F931F93DF
:1008A000CF93DF937C01CB018A0120917A0222232E
:1008B00089F0EB016B01C40ED51ECC15DD0569F086
:1008C0006991D701ED91FC910190F081E02DC70174
:1008D0000995F3CF642F0E94BA03C801DF91CF912D
:1008E0001F910F91FF90EF90DF90CF900895CF93DD
:1008F000DF931F92CDB7DEB7698320917A0222235E
:10090000F9F02091A002203258F021E030E0FC0103
:100910003383228390E080E00F90DF91CF910895A0
:100920008091A102E82FF0E0E558FD4F9981908376
:100930008F5F8093A1028093A00281E090E0ECCFD2
:1009400061E0CE0101960E94BA03F7CFCF92DF9209
:10095000EF92FF920F931F93CF93DF93FC01C4811B
:1009600021E020937A02C0939B021092A102109280
:10097000A0028385682B84E593E00E947704D091E0
:10098000A002D13208F092C00E9441016B017C01AB
:1009900080917402811165C082E08093740281E0CD
:1009A000809373028FEF8093720210927102D09342
:1009B0007002ABE7B2E0E0E5F2E080E0D81385C07A
:1009C00010924F0280914F02CC0FC82BC0934F0260
:1009D00080914E02813009F07CC010924E020E943C
:1009E00041016B017C0180914F028093BB0080919B
:1009F000760290917702A0917802B0917902892BCA
:100A00008A2B8B2B99F00E94410100917602109164
:100A1000770220917802309179026C197D098E0954
:100A20009F090617170728073907E0F18091BC00D6
:100A300083FDD9CF85EC8093BC000E9441016B01FE
:100A40007C0180917402823009F445C08091720269
:100A50008F3F61F180917202803241F18091720288
:100A600025C08091760290917702A0917802B09192
:100A70007902892B8A2B8B2B09F48ACF0E944101A2
:100A800000917602109177022091780230917902DC
:100A90006C197D098E099F09061717072807390762
:100AA00008F076CF809175020E94FF031092A10298
:100AB0001092A00210927A02DF91CF911F910F91B4
:100AC000FF90EF90DF90CF9008959D9191938F5F6D
:100AD00075CF85EEB0CF8091760290917702A0918C
:100AE0007802B0917902892B8A2B8B2B09F4A9CF3C
:100AF0000E944101009176021091770220917802C4
:100B0000309179026C197D098E099F090617170724
:100B10002807390708F095CFC5CF90E080E0089509
:100B2000FB0101900020E9F73197AF01461B570BFD
:100B3000DC01ED91FC910280F381E02D09948F920C
:100B40009F92AF92BF92EF92FF920F931F93CF931A
:100B5000DF93CDB7DEB7A1970FB6F894DEBF0FBE17
:100B6000CDBF7C01FA01CB0119A2223008F42AE0A2
:100B70008E010F5D1F4F822E912CB12CA12CBF0135
:100B8000A50194010E940A0FF901CA016A300CF50F
:100B9000605DD8016E938D01232B242B252B79F7D3
:100BA00090E080E0109721F0BD01C7010E94900500
:100BB000A1960FB6F894DEBF0FBECDBFDF91CF91E7
:100BC0001F910F91FF90EF90BF90AF909F908F90EB
:100BD0000895695CDECF0C9490052F923F924F925E
:100BE0005F926F927F928F929F92AF92BF92CF92BD
:100BF000DF92EF92FF921F93CF93DF93EC016A0194
:100C00007B01722EAB019601CB01B6010E94050F4C
:100C100068E371E0811126C046015701E894B7F8F6
:100C20002FEF3FEF4FE75FE7C501B4010E94050FCB
:100C300081110CC02FEF3FEF4FE75FE7C501B40113
:100C40000E943B0D6CE371E0181664F02FEF3FEF4C
:100C50004FE75FE4C701B6010E94930E1816B4F483
:100C600060E471E0CE01DF91CF911F91FF90EF9092
:100C7000DF90CF90BF90AF909F908F907F906F90BC
:100C80005F904F903F902F900C9490052FEF3FEF87
:100C90004FE75FECC701B6010E943B0D87FDE0CF37
:100CA00020E030E0A901C701B6010E943B0D312CC4
:100CB000212C87FF0DC0E881F9810190F081E02DA2
:100CC0006DE2CE0109951C01F7FAF094F7F8F09463
:100CD00010E060E070E080E09FE3711641F020E0FA
:100CE00030E040E251E40E94400D1F5FF6CFA701C3
:100CF00096010E94CF0C2B013C010E94B20D4B01CA
:100D00005C012AE0BC01A401CE010E949F057C0188
:100D1000E20CF31C1123E1F1C501B4010E94E10DC5
:100D20009B01AC01C301B2010E94CE0C4B015C01DE
:100D3000E881F9810190F081E02D6EE2CE01099504
:100D4000E80EF91E115020F120E030E040E251E4BD
:100D5000C501B4010E94980E2B013C010E94B20D06
:100D60004B01B12CA12C2AE0B501A401CE010E94B7
:100D70009F05E80EF91EC501B4010E94E10D9B011B
:100D8000AC01C301B2010E94CE0C4B015C01DACF71
:100D9000C701DF91CF911F91FF90EF90DF90CF902F
:100DA000BF90AF909F908F907F906F905F904F908B
:100DB0003F902F9008950F931F93CF938C01C62FD0
:100DC0000E94A6046C2F6460C8010E94A6046C2FC8
:100DD0006B7FC8010E94A60483EC90E00197F1F7B5
:100DE000CF911F910F9108950F931F93CF93DF938E
:100DF0008C01D62FC42F607F642B0E94DB0680E11C
:100E0000D89FB00111246C2BC801DF91CF911F91A5
:100E10000F910C94DB06CF93DF93CDB7DEB7289705
:100E20000FB6F894DEBF0FBECDBF88E0E0E0F1E082
:100E3000DE01119601900D928A95E1F780917B0376
:100E400081111AC08FEF90E0880F991F21E030E0E8
:100E50002C0F3D1F820F931FFC016081606840E0F2
:100E600083E793E028960FB6F894DEBF0FBECDBFA0
:100E7000DF91CF910C94F40681E0E5CF8F929F92A1
:100E8000AF92BF92CF92DF92EF92FF92CF930E94E8
:100E9000A401882341F0809166038C3009F462C07C
:100EA00048F48B3001F1C12CD12C90ECE92E9FE756
:100EB000F92E43C085518230B0F7C09162036C2F88
:100EC00070E0762F662766277F7780916303682B13
:100ED00090E080E00E94E10D2DEC3CEC4CEC5DE3F9
:100EE0000E94980E5BC06091620370E090E080E029
:100EF0000E94E10D6B017C01C0916303C7FF0AC032
:100F0000AC019B0160E070E080E89FEB0E94CE0C9A
:100F10006B017C01CF706C2F70E090E080E00E944C
:100F2000E30D2DEC3CEC4CEC5DE30E94980EA70128
:100F300096010E94CF0C6B017C010E94A4018823C2
:100F400051F0809166038B3030F08D3080F1855107
:100F5000823008F48DC0812C912C80ECA82E8FE774
:100F6000B82E43C0C09162036C2F70E090E080E027
:100F70000E94E10D6B017C01609163036F7070E072
:100F800090E080E00E94E30D2DEC3CEC4CEC5DE346
:100F90000E94980EA70196010E94CF0C6B017C0164
:100FA000C7FFCBCFF7FAF094F7F8F094C6CF609173
:100FB000610370E090E080E00E94E30D2DEC3CECDA
:100FC0004CEC5DE30E94980E4B015C016091600364
:100FD00070E090E080E00E94E30D9B01AC01C50150
:100FE000B4010E94CF0C4B015C0140E061E083E75B
:100FF00093E00E94F4068BE39FE10197F1F7A701CC
:101000009601C701B6010E94050F811108C0A50114
:101010009401C501B4010E94050F8823D9F16CE445
:1010200071E083E793E00E94EB050E940B076AE5FD
:1010300071E083E793E00E94EB0560E08EE00E94A0
:10104000C4001092A9026AE671E087EB92E00E9468
:10105000900561E971E087EB92E0CF91FF90EF900E
:10106000DF90CF90BF90AF909F908F900C949005A1
:10107000609160037091610376276727762790E07F
:1010800080E00E94E10D2DEC3CEC4CEC5DE30E9415
:10109000980EA9CFC1E020E030E04CE052E4C70157
:1010A000B6010E94930E18160CF0C0E0C093A9027E
:1010B000C1E020E030E040EE51E4C701B6010E94FB
:1010C000930E18160CF0C0E06C2F8EE00E94C40046
:1010D00064E971E083E793E00E94EB0521E0B7014A
:1010E000A60183E793E00E94ED0567E971E083E7DD
:1010F00093E00E94EB0520E0B501A40183E793E0B3
:101100000E94ED056CE971E083E793E00E94EB0536
:101110000E940B078091A9026EE971E081110EC057
:1011200020E030E040EE51E4C701B6010E94930E8A
:101130006EEA71E0181614F06BEB71E083E793E050
:101140000E94EB0567EC71E087EB92E00E94EB05F3
:1011500021E0B701A60187EB92E00E94ED056AEC61
:1011600071E087EB92E00E94EB0520E0B501A4015D
:1011700087EB92E00E94ED0560ED71E087EB92E075
:101180000E94EB0520E030E040EE51E4C701B601DB
:101190000E94930E6BEA71E0181614F063EC71E094
:1011A00087EB92E00E94EB058091A90263E971E070
:1011B000882309F44ACF64E471E047CF41E00E94FC
:1011C000F40681E090E0089585ED8093BC00809165
:1011D000760290917702A0917802B09179020796F9
:1011E000A11DB11D23E0B695A795979587952A95E2
:1011F000D1F72091BC0024FD03C010927402089521
:101200004091760250917702609178027091790254
:10121000452B462B472B69F30097A105B10541F0FB
:101220002AE22A95F1F700C00197A109B109E1CF9F
:10123000809175020C94FF031F920F920FB60F92CC
:1012400011242F933F938F939F93AF93BF938091DC
:10125000AF029091B002A091B102B091B202309170
:10126000AE0223E0230F2D3758F50196A11DB11DC5
:101270002093AE028093AF029093B002A093B1028C
:10128000B093B2028091B3029091B402A091B502E2
:10129000B091B6020196A11DB11D8093B302909347
:1012A000B402A093B502B093B602BF91AF919F91E3
:1012B0008F913F912F910F900FBE0F901F90189517
:1012C00026E8230F0296A11DB11DD2CF1F920F92C7
:1012D0000FB60F9211242F933F934F935F936F9309
:1012E0007F938F939F93AF93BF93EF93FF9387EB7E
:1012F00092E00E942A03FF91EF91BF91AF919F91DD
:101300008F917F916F915F914F913F912F910F90AE
:101310000FBE0F901F9018951F920F920FB60F924D
:1013200011242F938F939F93EF93FF93E091C70224
:10133000F091C8028081E091CD02F091CE0282FD51
:101340001BC090818091D0028F5F8F732091D1025A
:10135000821741F0E091D002F0E0E954FD4F958F03
:101360008093D002FF91EF919F918F912F910F90D9
:101370000FBE0F901F9018958081F4CF1F920F928F
:101380000FB60F9211242F933F934F935F936F9358
:101390007F938F939F93AF93BF93EF93FF9380912E
:1013A000B900887F803609F44AC0F0F5883209F424
:1013B000A7C018F5803109F49BC0B8F4882309F45C
:1013C000F9C0883009F494C0FF91EF91BF91AF91BB
:1013D0009F918F917F916F915F914F913F912F914D
:1013E0000F900FBE0F901F901895883109F488C098
:1013F000803251F78093720214C0803409F49DC08A
:1014000040F48033B9F38833F9F68093720285ECA7
:10141000B0C0803509F485C0883509F496C0883499
:1014200099F60E94E408D0CF883909F48CC038F5C9
:10143000883729F050F4883611F0803729F683E098
:101440008093740210924D0257C0883809F47BC013
:10145000803919F0803809F0B7CF80914D02803281
:1014600008F071C0E0914D0281E08E0F80934D0233
:101470008091BB00F0E0E35DFD4F80833DC0803B89
:1014800039F0E0F4803A09F479C0883A09F09CCF49
:1014900084E08093740210922C0210922B02E0914F
:1014A0009E02F0919F02099580912B0281110FC03D
:1014B00081E080932B0210920B0209C0803C09F45A
:1014C000A6CF883C09F4A3CF883B09F07DCFE091FB
:1014D0002C0281E08E0F80932C02F0E0E55FFD4F3F
:1014E00080818093BB0090912C0280912B0229C0B7
:1014F00080914F028093BB0085EC8093BC0064CF49
:101500009091710280917002981758F5E0917102E4
:1015100081E08E0F80937102F0E0E05BFD4F8081EF
:10152000E9CFE091710281E08E0F8093710280918A
:10153000BB00F0E0E05BFD4F8083909171028091F1
:1015400070029817C8F285E8D8CFE091710281E067
:101550008E0F809371028091BB00F0E0E05BFD4F45
:1015600080838091730281115CCF81E080934E0271
:1015700084EA8093BC001092740226CF85EC80939D
:10158000BC001092740280914D02803230F4E091E0
:101590004D02F0E0E35DFD4F108260914D0270E07E
:1015A000E0919C02F0919D028DE292E009951092EB
:1015B0004D020ACF1092720234CFE7EBF2E01382B1
:1015C000128288EE93E0A0E0B0E084839583A68346
:1015D000B7832CE031E03183208325EC30E0358780
:1015E000248724EC30E03787268720EC30E0318BED
:1015F000208B21EC30E0338B228B22EC30E0358BDA
:10160000248B26EC30E0378B268B118E128E138EB6
:10161000148EE4E5F3E01382128284839583A6831B
:10162000B7838EE191E091838083E3E7F3E0138257
:10163000128280E391E09183808387E2848380E15A
:10164000818782E082871386A0E6B3E085E0159665
:101650008C93159786E116968C931697E3EBF0E042
:10166000E4911796EC931797EFE9F0E0E491189660
:10167000EC93189740E85EE360E070E01D964D93B0
:101680005D936D937C9350970895789484B58260B0
:1016900084BD84B5816084BD85B5826085BD85B516
:1016A000816085BD80916E00816080936E00109294
:1016B000810080918100826080938100809181000F
:1016C00081608093810080918000816080938000A0
:1016D0008091B10084608093B1008091B0008160FE
:1016E0008093B00080917A00846080937A0080912A
:1016F0007A00826080937A0080917A008160809382
:101700007A0080917A00806880937A001092C100FC
:10171000E091C702F091C80282E08083E091C302A9
:10172000F091C4021082E091C502F091C6028FECE4
:1017300080831092CF02E091CB02F091CC0286E040
:101740008083E091C902F091CA0280818061808328
:10175000E091C902F091CA02808188608083E091A3
:10176000C902F091CA02808180688083E091C90239
:10177000F091CA0280818F7D808361E08EE00E94BB
:10178000100161E08FE00E9410011092A3021092FC
:10179000A2021092A1021092A0020E94E1038AEA22
:1017A00092E090939F0280939E028BEA92E0909346
:1017B0009D0280939C021092780380917D03823079
:1017C00018F098E09093780380937B0362E370E0D5
:1017D00080E090E00E94660160917E0383E793E0E1
:1017E0000E94A60468EE73E080E090E00E9466012B
:1017F00060E383E793E00E94DB06CBE4D6E4CE010E
:101800000197F1F760E383E793E00E94DB062197FD
:10181000F1F760E383E793E00E94DB0683E592E063
:101820000197F1F760E283E793E00E94DB066091A5
:101830007803606240E083E793E00E94F40684E06E
:101840008093790340E06CE083E793E00E94F40624
:1018500040E061E083E793E00E94F406CBE3DFE140
:10186000CE010197F1F782E080937A0340E066E0D1
:1018700083E793E00E94F40640E062E083E793E0B0
:101880000E94F4062197F1F788E080937E0360E0E0
:1018900083E793E00E94A60468ED71E083E793E09C
:1018A0000E94EB0562E0809165030E9410010E9496
:1018B0009801605D77408109910960936903709395
:1018C0006A0380936B0390936C0387E380937203A6
:1018D00068EE73E080E090E00E9466010E943E079F
:1018E00011E0C0E0D0E00E949801C090AA02D09020
:1018F000AB02E090AC02F090AD026C197D098E094C
:101900009F09603D77408105910560F00E94980134
:101910006093AA027093AB028093AC029093AD02E5
:101920000E943E078091A902882381F10E949801BC
:10193000C090A502D090A602E090A702F090A80265
:101940006C197D098E099F096C32714081059105E2
:1019500090F00E9498016093A5027093A602809374
:10196000A7029093A8026091A40261276093A40249
:101970008FE00E94C400209709F4B5CF0E9416039F
:10198000882309F4B0CF0E940000ADCF8091A4025B
:10199000882389F31092A40260E0EACF5058BB2755
:1019A000AA270E94E60C0C94590E0E944B0E38F0A8
:1019B0000E94520E20F039F49F3F19F426F40C9443
:1019C000480E0EF4E095E7FB0C94420EE92F0E94BE
:1019D0006A0E58F3BA17620773078407950720F059
:1019E00079F4A6F50C948C0E0EF4E0950B2EBA2F1C
:1019F000A02D0B01B90190010C01CA01A001112415
:101A0000FF27591B99F0593F50F4503E68F11A16C0
:101A1000F040A22F232F342F4427585FF3CF469551
:101A200037952795A795F0405395C9F77EF41F1673
:101A3000BA0B620B730B840BBAF09150A1F0FF0F3D
:101A4000BB1F661F771F881FC2F70EC0BA0F621F29
:101A5000731F841F48F4879577956795B795F79519
:101A60009E3F08F0B0CF9395880F08F09927EE0FAE
:101A70009795879508950E941E0E08F481E00895B9
:101A80000E94540D0C94590E0E94520E58F00E9460
:101A90004B0E40F029F45F3F29F00C94420E511197
:101AA0000C948D0E0C94480E0E946A0E68F39923D4
:101AB000B1F3552391F3951B550BBB27AA2762174A
:101AC0007307840738F09F5F5F4F220F331F441F57
:101AD000AA1FA9F335D00E2E3AF0E0E832D091508B
:101AE0005040E695001CCAF72BD0FE2F29D0660F78
:101AF000771F881FBB1F261737074807AB07B0E8BB
:101B000009F0BB0B802DBF01FF2793585F4F3AF0C0
:101B10009E3F510578F00C94420E0C948D0E5F3F61
:101B2000E4F3983ED4F3869577956795B795F79546
:101B30009F5FC9F7880F911D9695879597F908952E
:101B4000E1E0660F771F881FBB1F621773078407CA
:101B5000BA0720F0621B730B840BBA0BEE1F88F7D9
:101B6000E09508950E94720E88F09F5798F0B92F63
:101B70009927B751B0F0E1F0660F771F881F991FC2
:101B80001AF0BA95C9F714C0B13091F00E948C0ECA
:101B9000B1E008950C948C0E672F782F8827B85FDA
:101BA00039F0B93FCCF3869577956795B395D9F71A
:101BB0003EF490958095709561957F4F8F4F9F4F24
:101BC0000895E89409C097FB3EF490958095709530
:101BD00061957F4F8F4F9F4F9923A9F0F92F96E979
:101BE000BB279395F695879577956795B795F111EE
:101BF000F8CFFAF4BB0F11F460FF1BC06F5F7F4F8B
:101C00008F4F9F4F16C0882311F096E911C077239C
:101C100021F09EE8872F762F05C0662371F096E8A5
:101C2000862F70E060E02AF09A95660F771F881F74
:101C3000DAF7880F9695879597F90895990F000818
:101C4000550FAA0BE0E8FEEF16161706E807F9078E
:101C5000C0F012161306E407F50798F0621B730B29
:101C6000840B950B39F40A2661F0232B242B252BAA
:101C700021F408950A2609F4A140A6958FEF811D4D
:101C8000811D089597F99F6780E870E060E00895EE
:101C90009FEF80EC089500240A9416161706180684
:101CA0000906089500240A94121613061406050660
:101CB0000895092E0394000C11F4882352F0BB0FF1
:101CC00040F4BF2B11F460FF04C06F5F7F4F8F4F54
:101CD0009F4F089557FD9058440F551F59F05F3F8F
:101CE00071F04795880F97FB991F61F09F3F79F03E
:101CF00087950895121613061406551FF2CF4695C0
:101D0000F1DF08C0161617061806991FF1CF869541
:101D10007105610508940895E894BB276627772725
:101D2000CB0197F908950E941E0E08F48FEF0895D5
:101D30000E94AB0E0C94590E0E944B0E38F00E947C
:101D4000520E20F0952311F00C94420E0C94480E84
:101D500011240C948D0E0E946A0E70F3959FC1F3AE
:101D6000950F50E0551F629FF001729FBB27F00D49
:101D7000B11D639FAA27F00DB11DAA1F649F66279E
:101D8000B00DA11D661F829F2227B00DA11D621FED
:101D9000739FB00DA11D621F839FA00D611D221FA7
:101DA000749F3327A00D611D231F849F600D211D8B
:101DB000822F762F6A2F11249F5750409AF0F1F00E
:101DC00088234AF0EE0FFF1FBB1F661F771F881F77
:101DD00091505040A9F79E3F510580F00C94420E5F
:101DE0000C948D0E5F3FE4F3983ED4F3869577957F
:101DF0006795B795F795E7959F5FC1F7FE2B880F1D
:101E0000911D9695879597F908950E941E0E880B4F
:101E1000990B0895A1E21A2EAA1BBB1BFD010DC050
:101E2000AA1FBB1FEE1FFF1FA217B307E407F5078A
:101E300020F0A21BB30BE40BF50B661F771F881F66
:101E4000991F1A9469F760957095809590959B01FC
:101E5000AC01BD01CF010895EE0FFF1F0590F49175
:081E6000E02D0994F894FFCF76
:101E68000000400014005400000000004C03AC02C5
:101E7800D90299030A03E802FC0200000000770473
:101E88004A048D05200443043004210400000000A6
:101E9800DE08AC028D05B9036E616E00696E6600DE
:101EA8006F7666002020414C41524D0053656E7399
:101EB8006F72206572726F722100436865636B20D0
:101EC8007468652044485432320053656E736F72EB
:101ED800206572726F723A206E6F20616E7377653B
:101EE800722066726F6D20746865204448543232DF
:101EF800000D0A00543A004320483A002500544F88
:101F08004F20484F54212046616E204F4E005761A4
:101F1800726D3A2066616E204F4E004F4B3A206634
:101F2800616E204F464600543D00432020483D0046
:101F380025202066616E3D00536D617274206772C2
:0A1F480065656E686F757365000033
:00000001FF
