:100000000C9434000C9449000C9449000C94490061
:100010000C9449000C9449000C9449000C9449003C
:100020000C9449000C9449000C9449000C9449002C
:100030000C9449000C9449000C9449000C9449001C
:100040000C9449000C9449000C9449000C9449000C
:100050000C9449000C9449000C9449000C944900FC
:100060000C9449000C94490011241FBECFEFD8E036
:10007000DEBFCDBF11E0A0E0B1E0EAE6F1E002C0F2
:1000800005900D92AA30B107D9F70E9457000C9441
:10009000B3000C940000FC019191911101C00895EE
:1000A0008091C00085FFFCCF9093C600F5CFCF9321
:1000B000DF9300D000D0CDB7DEB782E08093C000E0
:1000C00088E08093C10086E08093C20080E190E0E8
:1000D0009093C5008093C400399A259A80E092E0FD
:1000E000C92E20E2B22E3AE0A32EC6B8B3B8DD2462
:1000F000D394D80E1C82FE01319602E010E07F01FD
:100100006A2D0E94A700905D9283882341F00150E0
:10011000110931970F3F100799F710E000E080E0D8
:1001200091E00E944B00C701800F911F0E944B007D
:1001300087E091E00E944B008FEF91EE24E0815028
:1001400090402040E1F700C000008D2DCECF991BDC
:1001500079E004C0991F961708F0961B881F7A95BE
:0A016000C9F780950895F894FFCFC9
:0A016A00626C696E6B20000D0A0044
:00000001FF
